{
  "_format": "hh-sol-artifact-1",
  "contractName": "NutritionistNFT",
  "sourceName": "contracts/NutritionistNFT.sol",
  "abi": [
    {
      "inputs": [
        {
          "internalType": "string",
          "name": "name",
          "type": "string"
        },
        {
          "internalType": "string",
          "name": "symbol",
          "type": "string"
        },
        {
          "internalType": "address",
          "name": "_owner",
          "type": "address"
        }
      ],
      "stateMutability": "nonpayable",
      "type": "constructor"
    },
    {
      "inputs": [],
      "name": "SBT_ApprovalNotSupported",
      "type": "error"
    },
    {
      "inputs": [],
      "name": "SBT__TransferNotSupported",
      "type": "error"
    },
    {
      "anonymous": false,
      "inputs": [
        {
          "indexed": true,
          "internalType": "address",
          "name": "owner",
          "type": "address"
        },
        {
          "indexed": true,
          "internalType": "address",
          "name": "approved",
          "type": "address"
        },
        {
          "indexed": true,
          "internalType": "uint256",
          "name": "tokenId",
          "type": "uint256"
        }
      ],
      "name": "Approval",
      "type": "event"
    },
    {
      "anonymous": false,
      "inputs": [
        {
          "indexed": true,
          "internalType": "address",
          "name": "owner",
          "type": "address"
        },
        {
          "indexed": true,
          "internalType": "address",
          "name": "operator",
          "type": "address"
        },
        {
          "indexed": false,
          "internalType": "bool",
          "name": "approved",
          "type": "bool"
        }
      ],
      "name": "ApprovalForAll",
      "type": "event"
    },
    {
      "anonymous": false,
      "inputs": [
        {
          "indexed": false,
          "internalType": "address",
          "name": "member",
          "type": "address"
        },
        {
          "indexed": false,
          "internalType": "uint256",
          "name": "tokenId",
          "type": "uint256"
        }
      ],
      "name": "BurnNutritionistNFT",
      "type": "event"
    },
    {
      "anonymous": false,
      "inputs": [
        {
          "indexed": false,
          "internalType": "address",
          "name": "nutritionist",
          "type": "address"
        }
      ],
      "name": "MintNutritionistNFT",
      "type": "event"
    },
    {
      "anonymous": false,
      "inputs": [
        {
          "indexed": true,
          "internalType": "address",
          "name": "from",
          "type": "address"
        },
        {
          "indexed": true,
          "internalType": "address",
          "name": "to",
          "type": "address"
        },
        {
          "indexed": true,
          "internalType": "uint256",
          "name": "tokenId",
          "type": "uint256"
        }
      ],
      "name": "Transfer",
      "type": "event"
    },
    {
      "inputs": [
        {
          "internalType": "address",
          "name": "",
          "type": "address"
        },
        {
          "internalType": "uint256",
          "name": "",
          "type": "uint256"
        }
      ],
      "name": "approve",
      "outputs": [],
      "stateMutability": "pure",
      "type": "function"
    },
    {
      "inputs": [
        {
          "internalType": "address",
          "name": "owner",
          "type": "address"
        }
      ],
      "name": "balanceOf",
      "outputs": [
        {
          "internalType": "uint256",
          "name": "",
          "type": "uint256"
        }
      ],
      "stateMutability": "view",
      "type": "function"
    },
    {
      "inputs": [
        {
          "internalType": "address",
          "name": "nutritionist",
          "type": "address"
        },
        {
          "internalType": "uint256",
          "name": "_tokenId",
          "type": "uint256"
        }
      ],
      "name": "burn",
      "outputs": [],
      "stateMutability": "nonpayable",
      "type": "function"
    },
    {
      "inputs": [
        {
          "internalType": "uint256",
          "name": "",
          "type": "uint256"
        }
      ],
      "name": "getApproved",
      "outputs": [
        {
          "internalType": "address",
          "name": "",
          "type": "address"
        }
      ],
      "stateMutability": "pure",
      "type": "function"
    },
    {
      "inputs": [
        {
          "internalType": "address",
          "name": "owner",
          "type": "address"
        }
      ],
      "name": "getTokenIdOfOwner",
      "outputs": [
        {
          "internalType": "uint256",
          "name": "",
          "type": "uint256"
        }
      ],
      "stateMutability": "view",
      "type": "function"
    },
    {
      "inputs": [
        {
          "internalType": "address",
          "name": "",
          "type": "address"
        },
        {
          "internalType": "address",
          "name": "",
          "type": "address"
        }
      ],
      "name": "isApprovedForAll",
      "outputs": [
        {
          "internalType": "bool",
          "name": "",
          "type": "bool"
        }
      ],
      "stateMutability": "pure",
      "type": "function"
    },
    {
      "inputs": [
        {
          "internalType": "address",
          "name": "nutritionist",
          "type": "address"
        },
        {
          "internalType": "string",
          "name": "uri",
          "type": "string"
        }
      ],
      "name": "mint",
      "outputs": [],
      "stateMutability": "nonpayable",
      "type": "function"
    },
    {
      "inputs": [],
      "name": "name",
      "outputs": [
        {
          "internalType": "string",
          "name": "",
          "type": "string"
        }
      ],
      "stateMutability": "view",
      "type": "function"
    },
    {
      "inputs": [],
      "name": "owner",
      "outputs": [
        {
          "internalType": "address",
          "name": "",
          "type": "address"
        }
      ],
      "stateMutability": "view",
      "type": "function"
    },
    {
      "inputs": [
        {
          "internalType": "uint256",
          "name": "tokenId",
          "type": "uint256"
        }
      ],
      "name": "ownerOf",
      "outputs": [
        {
          "internalType": "address",
          "name": "",
          "type": "address"
        }
      ],
      "stateMutability": "view",
      "type": "function"
    },
    {
      "inputs": [
        {
          "internalType": "address",
          "name": "",
          "type": "address"
        },
        {
          "internalType": "address",
          "name": "",
          "type": "address"
        },
        {
          "internalType": "uint256",
          "name": "",
          "type": "uint256"
        }
      ],
      "name": "safeTransferFrom",
      "outputs": [],
      "stateMutability": "pure",
      "type": "function"
    },
    {
      "inputs": [
        {
          "internalType": "address",
          "name": "",
          "type": "address"
        },
        {
          "internalType": "address",
          "name": "",
          "type": "address"
        },
        {
          "internalType": "uint256",
          "name": "",
          "type": "uint256"
        },
        {
          "internalType": "bytes",
          "name": "",
          "type": "bytes"
        }
      ],
      "name": "safeTransferFrom",
      "outputs": [],
      "stateMutability": "pure",
      "type": "function"
    },
    {
      "inputs": [
        {
          "internalType": "address",
          "name": "",
          "type": "address"
        },
        {
          "internalType": "bool",
          "name": "",
          "type": "bool"
        }
      ],
      "name": "setApprovalForAll",
      "outputs": [],
      "stateMutability": "pure",
      "type": "function"
    },
    {
      "inputs": [
        {
          "internalType": "bytes4",
          "name": "interfaceId",
          "type": "bytes4"
        }
      ],
      "name": "supportsInterface",
      "outputs": [
        {
          "internalType": "bool",
          "name": "",
          "type": "bool"
        }
      ],
      "stateMutability": "view",
      "type": "function"
    },
    {
      "inputs": [],
      "name": "symbol",
      "outputs": [
        {
          "internalType": "string",
          "name": "",
          "type": "string"
        }
      ],
      "stateMutability": "view",
      "type": "function"
    },
    {
      "inputs": [
        {
          "internalType": "uint256",
          "name": "tokenId",
          "type": "uint256"
        }
      ],
      "name": "tokenURI",
      "outputs": [
        {
          "internalType": "string",
          "name": "",
          "type": "string"
        }
      ],
      "stateMutability": "view",
      "type": "function"
    },
    {
      "inputs": [
        {
          "internalType": "address",
          "name": "",
          "type": "address"
        },
        {
          "internalType": "address",
          "name": "",
          "type": "address"
        },
        {
          "internalType": "uint256",
          "name": "",
          "type": "uint256"
        }
      ],
      "name": "transferFrom",
      "outputs": [],
      "stateMutability": "pure",
      "type": "function"
    }
  ],
  "bytecode": "0x60806040523480156200001157600080fd5b506040516200161e3803806200161e833981016040819052620000349162000145565b8282600162000044838262000261565b50600262000053828262000261565b5050600880546001600160a01b0319166001600160a01b039390931692909217909155506200032d915050565b634e487b7160e01b600052604160045260246000fd5b600082601f830112620000a857600080fd5b81516001600160401b0380821115620000c557620000c562000080565b604051601f8301601f19908116603f01168101908282118183101715620000f057620000f062000080565b816040528381526020925086838588010111156200010d57600080fd5b600091505b8382101562000131578582018301518183018401529082019062000112565b600093810190920192909252949350505050565b6000806000606084860312156200015b57600080fd5b83516001600160401b03808211156200017357600080fd5b620001818783880162000096565b945060208601519150808211156200019857600080fd5b50620001a78682870162000096565b604086015190935090506001600160a01b0381168114620001c757600080fd5b809150509250925092565b600181811c90821680620001e757607f821691505b6020821081036200020857634e487b7160e01b600052602260045260246000fd5b50919050565b601f8211156200025c57600081815260208120601f850160051c81016020861015620002375750805b601f850160051c820191505b81811015620002585782815560010162000243565b5050505b505050565b81516001600160401b038111156200027d576200027d62000080565b62000295816200028e8454620001d2565b846200020e565b602080601f831160018114620002cd5760008415620002b45750858301515b600019600386901b1c1916600185901b17855562000258565b600085815260208120601f198616915b82811015620002fe57888601518255948401946001909101908401620002dd565b50858210156200031d5787850151600019600388901b60f8161c191681555b5050505050600190811b01905550565b6112e1806200033d6000396000f3fe608060405234801561001057600080fd5b506004361061010b5760003560e01c80638da5cb5b116100a2578063a22cb46511610071578063a22cb4651461022c578063b88d4fde1461023a578063c87b56dd14610248578063d0def5211461025b578063e985e9c51461026e57600080fd5b80638da5cb5b146101d557806395d89b41146101e85780639c85cd6b146101f05780639dc29fac1461021957600080fd5b806323b872dd116100de57806323b872dd1461018e57806342842e0e1461018e5780636352211e146101a157806370a08231146101b457600080fd5b806301ffc9a71461011057806306fdde0314610138578063081812fc1461014d578063095ea7b314610179575b600080fd5b61012361011e366004610da8565b610284565b60405190151581526020015b60405180910390f35b6101406102bb565b60405161012f9190610df6565b61016161015b366004610e29565b50600090565b6040516001600160a01b03909116815260200161012f565b61018c610187366004610e5e565b61034d565b005b61018c61019c366004610e88565b610366565b6101616101af366004610e29565b61037f565b6101c76101c2366004610ec4565b6103e4565b60405190815260200161012f565b600854610161906001600160a01b031681565b61014061046a565b6101c76101fe366004610ec4565b6001600160a01b031660009081526005602052604090205490565b61018c610227366004610e5e565b610479565b61018c610187366004610edf565b61018c61019c366004610f1b565b610140610256366004610e29565b61054d565b61018c610269366004610fcc565b61065d565b61012361027c36600461108e565b600092915050565b60006001600160e01b031982166380ac58cd60e01b14806102b557506301ffc9a760e01b6001600160e01b03198316145b92915050565b6060600180546102ca906110c1565b80601f01602080910402602001604051908101604052809291908181526020018280546102f6906110c1565b80156103435780601f1061031857610100808354040283529160200191610343565b820191906000526020600020905b81548152906001019060200180831161032657829003601f168201915b5050505050905090565b604051631e507fd160e31b815260040160405180910390fd5b6040516335b3f76960e21b815260040160405180910390fd5b6000818152600360205260408120546001600160a01b0316806102b55760405162461bcd60e51b8152602060048201526018602482015277115490cdcc8c4e881a5b9d985b1a59081d1bdad95b88125160421b60448201526064015b60405180910390fd5b60006001600160a01b03821661044e5760405162461bcd60e51b815260206004820152602960248201527f4552433732313a2061646472657373207a65726f206973206e6f7420612076616044820152683634b21037bbb732b960b91b60648201526084016103db565b506001600160a01b031660009081526004602052604090205490565b6060600280546102ca906110c1565b6008546001600160a01b031633146104c65760405162461bcd60e51b815260206004820152601060248201526f31b0b63632b9103737ba1037bbb732b960811b60448201526064016103db565b6104d08282610719565b600081815260066020526040902080546104e9906110c1565b15905061050757600081815260066020526040812061050791610d5a565b604080516001600160a01b0384168152602081018390527f2a4ffdf34772175e4a9b997092588ad7054bb1648da71f0cc58a9003378994a3910160405180910390a15050565b6060610558826108a5565b60008281526006602052604081208054610571906110c1565b80601f016020809104026020016040519081016040528092919081815260200182805461059d906110c1565b80156105ea5780601f106105bf576101008083540402835291602001916105ea565b820191906000526020600020905b8154815290600101906020018083116105cd57829003601f168201915b50505050509050600061060860408051602081019091526000815290565b9050805160000361061a575092915050565b81511561064c5780826040516020016106349291906110fb565b60405160208183030381529060405292505050919050565b610655846108f8565b949350505050565b6008546001600160a01b031633146106aa5760405162461bcd60e51b815260206004820152601060248201526f31b0b63632b9103737ba1037bbb732b960811b60448201526064016103db565b6106b38261096c565b6106c1600780546001019055565b60006106cc60075490565b90506106d881836109a5565b6040516001600160a01b03841681527f0ab9796d16d678cf5c93deba248913fea3b0e77e28d787314744147043d416669060200160405180910390a1505050565b6001600160a01b03821661077d5760405162461bcd60e51b815260206004820152602560248201527f4552433732313a2066726f6d2063616e6e6f742062652061207a65726f206164604482015264647265737360d81b60648201526084016103db565b61078681610a2e565b6107de5760405162461bcd60e51b815260206004820152602360248201527f4552433732313a20746f6b656e206964206e6565647320746f206265206d696e6044820152621d195960ea1b60648201526084016103db565b6107ec826000836001610a4b565b6107f581610a2e565b6108115760405162461bcd60e51b81526004016103db9061112a565b6001600160a01b038216600081815260046020908152604080832080546000190190558483526003825280832080546001600160a01b031916905582805260059091527f05b8ccbb9d4d8fb16ea74ce3c29a41f1b461fbdaff4714a0d9a8eb05499746bc849055518392907fddf252ad1be2c89b69c2b068fc378daa952ba7f163c4a11628f55a4df523b3ef908390a45050565b6108ae81610a2e565b6108f55760405162461bcd60e51b8152602060048201526018602482015277115490cdcc8c4e881a5b9d985b1a59081d1bdad95b88125160421b60448201526064016103db565b50565b6060610903826108a5565b600061091a60408051602081019091526000815290565b9050600081511161093a5760405180602001604052806000815250610965565b8061094484610ad4565b6040516020016109559291906110fb565b6040516020818303038152906040525b9392505050565b61097a600080546001019055565b600080546001600160a01b0383168252600560205260409091208190556109a18282610b67565b5050565b6109ae82610a2e565b610a115760405162461bcd60e51b815260206004820152602e60248201527f45524337323155524953746f726167653a2055524920736574206f66206e6f6e60448201526d32bc34b9ba32b73a103a37b5b2b760911b60648201526084016103db565b6000828152600660205260409020610a2982826111af565b505050565b6000908152600360205260409020546001600160a01b0316151590565b6001811115610ace576001600160a01b03841615610a91576001600160a01b03841660009081526004602052604081208054839290610a8b908490611285565b90915550505b6001600160a01b03831615610ace576001600160a01b03831660009081526004602052604081208054839290610ac8908490611298565b90915550505b50505050565b60606000610ae183610c82565b600101905060008167ffffffffffffffff811115610b0157610b01610fb6565b6040519080825280601f01601f191660200182016040528015610b2b576020820181803683370190505b5090508181016020015b600019016f181899199a1a9b1b9c1cb0b131b232b360811b600a86061a8153600a8504945084610b3557509392505050565b6001600160a01b038216610bbd5760405162461bcd60e51b815260206004820181905260248201527f4552433732313a206d696e7420746f20746865207a65726f206164647265737360448201526064016103db565b610bc681610a2e565b15610be35760405162461bcd60e51b81526004016103db9061112a565b610bf1600083836001610a4b565b610bfa81610a2e565b15610c175760405162461bcd60e51b81526004016103db9061112a565b6001600160a01b038216600081815260046020908152604080832080546001019055848352600390915280822080546001600160a01b0319168417905551839291907fddf252ad1be2c89b69c2b068fc378daa952ba7f163c4a11628f55a4df523b3ef908290a45050565b60008072184f03e93ff9f4daa797ed6e38ed64bf6a1f0160401b8310610cc15772184f03e93ff9f4daa797ed6e38ed64bf6a1f0160401b830492506040015b6d04ee2d6d415b85acef81000000008310610ced576d04ee2d6d415b85acef8100000000830492506020015b662386f26fc100008310610d0b57662386f26fc10000830492506010015b6305f5e1008310610d23576305f5e100830492506008015b6127108310610d3757612710830492506004015b60648310610d49576064830492506002015b600a83106102b55760010192915050565b508054610d66906110c1565b6000825580601f10610d76575050565b601f0160209004906000526020600020908101906108f591905b80821115610da45760008155600101610d90565b5090565b600060208284031215610dba57600080fd5b81356001600160e01b03198116811461096557600080fd5b60005b83811015610ded578181015183820152602001610dd5565b50506000910152565b6020815260008251806020840152610e15816040850160208701610dd2565b601f01601f19169190910160400192915050565b600060208284031215610e3b57600080fd5b5035919050565b80356001600160a01b0381168114610e5957600080fd5b919050565b60008060408385031215610e7157600080fd5b610e7a83610e42565b946020939093013593505050565b600080600060608486031215610e9d57600080fd5b610ea684610e42565b9250610eb460208501610e42565b9150604084013590509250925092565b600060208284031215610ed657600080fd5b61096582610e42565b60008060408385031215610ef257600080fd5b610efb83610e42565b915060208301358015158114610f1057600080fd5b809150509250929050565b600080600080600060808688031215610f3357600080fd5b610f3c86610e42565b9450610f4a60208701610e42565b935060408601359250606086013567ffffffffffffffff80821115610f6e57600080fd5b818801915088601f830112610f8257600080fd5b813581811115610f9157600080fd5b896020828501011115610fa357600080fd5b9699959850939650602001949392505050565b634e487b7160e01b600052604160045260246000fd5b60008060408385031215610fdf57600080fd5b610fe883610e42565b9150602083013567ffffffffffffffff8082111561100557600080fd5b818501915085601f83011261101957600080fd5b81358181111561102b5761102b610fb6565b604051601f8201601f19908116603f0116810190838211818310171561105357611053610fb6565b8160405282815288602084870101111561106c57600080fd5b8260208601602083013760006020848301015280955050505050509250929050565b600080604083850312156110a157600080fd5b6110aa83610e42565b91506110b860208401610e42565b90509250929050565b600181811c908216806110d557607f821691505b6020821081036110f557634e487b7160e01b600052602260045260246000fd5b50919050565b6000835161110d818460208801610dd2565b835190830190611121818360208801610dd2565b01949350505050565b6020808252601c908201527f4552433732313a20746f6b656e20616c7265616479206d696e74656400000000604082015260600190565b601f821115610a2957600081815260208120601f850160051c810160208610156111885750805b601f850160051c820191505b818110156111a757828155600101611194565b505050505050565b815167ffffffffffffffff8111156111c9576111c9610fb6565b6111dd816111d784546110c1565b84611161565b602080601f83116001811461121257600084156111fa5750858301515b600019600386901b1c1916600185901b1785556111a7565b600085815260208120601f198616915b8281101561124157888601518255948401946001909101908401611222565b508582101561125f5787850151600019600388901b60f8161c191681555b5050505050600190811b01905550565b634e487b7160e01b600052601160045260246000fd5b818103818111156102b5576102b561126f565b808201808211156102b5576102b561126f56fea264697066735822122063cc69cb680b5375c4d3bbb0cd8d4469cf3c1e331a775f367efa10f79437e14864736f6c63430008110033",
  "linkReferences": {},
  "deployedLinkReferences": {}
}