{
  "_format": "hh-sol-artifact-1",
  "contractName": "Treasury",
  "sourceName": "contracts/Treasury.sol",
  "abi": [
    {
      "anonymous": false,
      "inputs": [
        {
          "indexed": true,
          "internalType": "address",
          "name": "previousOwner",
          "type": "address"
        },
        {
          "indexed": true,
          "internalType": "address",
          "name": "newOwner",
          "type": "address"
        }
      ],
      "name": "OwnershipTransferred",
      "type": "event"
    },
    {
      "inputs": [],
      "name": "owner",
      "outputs": [
        {
          "internalType": "address",
          "name": "",
          "type": "address"
        }
      ],
      "stateMutability": "view",
      "type": "function"
    },
    {
      "inputs": [],
      "name": "renounceOwnership",
      "outputs": [],
      "stateMutability": "nonpayable",
      "type": "function"
    },
    {
      "inputs": [
        {
          "internalType": "address",
          "name": "newOwner",
          "type": "address"
        }
      ],
      "name": "transferOwnership",
      "outputs": [],
      "stateMutability": "nonpayable",
      "type": "function"
    },
    {
      "inputs": [
        {
          "internalType": "uint256",
          "name": "_amount",
          "type": "uint256"
        },
        {
          "internalType": "address",
          "name": "_recipient",
          "type": "address"
        }
      ],
      "name": "withdrawFunds",
      "outputs": [],
      "stateMutability": "nonpayable",
      "type": "function"
    },
    {
      "stateMutability": "payable",
      "type": "receive"
    }
  ],
  "bytecode": "0x608060405234801561001057600080fd5b5061001a3361001f565b61006f565b600080546001600160a01b038381166001600160a01b0319831681178455604051919092169283917f8be0079c531659141344cd1fd0a4f28419497f9722a3daafe3b4186f6b6457e09190a35050565b6103388061007e6000396000f3fe6080604052600436106100435760003560e01c8063715018a61461004f578063744bfe61146100665780638da5cb5b14610086578063f2fde38b146100b257600080fd5b3661004a57005b600080fd5b34801561005b57600080fd5b506100646100d2565b005b34801561007257600080fd5b506100646100813660046102b4565b6100e6565b34801561009257600080fd5b50600054604080516001600160a01b039092168252519081900360200190f35b3480156100be57600080fd5b506100646100cd3660046102e0565b610175565b6100da6101ee565b6100e46000610248565b565b6100ee6101ee565b4782111561013a5760405162461bcd60e51b8152602060048201526014602482015273496e73756666696369656e742062616c616e636560601b60448201526064015b60405180910390fd5b6040516001600160a01b0382169083156108fc029084906000818181858888f19350505050158015610170573d6000803e3d6000fd5b505050565b61017d6101ee565b6001600160a01b0381166101e25760405162461bcd60e51b815260206004820152602660248201527f4f776e61626c653a206e6577206f776e657220697320746865207a65726f206160448201526564647265737360d01b6064820152608401610131565b6101eb81610248565b50565b6000546001600160a01b031633146100e45760405162461bcd60e51b815260206004820181905260248201527f4f776e61626c653a2063616c6c6572206973206e6f7420746865206f776e65726044820152606401610131565b600080546001600160a01b038381166001600160a01b0319831681178455604051919092169283917f8be0079c531659141344cd1fd0a4f28419497f9722a3daafe3b4186f6b6457e09190a35050565b80356001600160a01b03811681146102af57600080fd5b919050565b600080604083850312156102c757600080fd5b823591506102d760208401610298565b90509250929050565b6000602082840312156102f257600080fd5b6102fb82610298565b939250505056fea26469706673582212202c51aa9b2a1c31f8fa19afc2275e1ee655310aee35269902995a56622c03c76564736f6c63430008110033",
  "linkReferences": {},
  "deployedLinkReferences": {}
}